:1000000000800020BD010000B93300007D330000F6
:100010007D3300007D3300007D3300007D33000020
:100020007D3300007D3300007D330000B9330000D4
:10003000B93300007D330000B93300006D33000098
:10004000B9330000B9330000B9330000B933000000
:10005000B9330000B9330000B9330000B9330000F0
:10006000B9330000B9330000B9330000B9330000E0
:10007000B9330000B9330000B9330000B9330000D0
:10008000B9330000B9330000B9330000B9330000C0
:10009000B9330000B9330000B9330000B9330000B0
:1000A000B9330000B9330000B9330000B9330000A0
:1000B000B9330000B9330000B9330000B933000090
:1000C000B9330000B9330000B9330000B933000080
:1000D000B9330000B9330000B9330000B933000070
:1000E000B9330000B9330000B9330000B933000060
:1000F000B933000055390000B9330000F53E000067
:10010000B933000099430000B9330000B93300004F
:10011000B9330000B9330000B9330000B93300002F
:10012000B9330000B9330000B9330000B93300001F
:10013000B9330000B9330000B9330000B93300000F
:10014000B9330000B9330000B9330000B9330000FF
:10015000B9330000B9330000B9330000B9330000EF
:10016000B933000069280000B9330000B93300003A
:10017000B9330000B9330000B9330000B9330000CF
:10018000B9330000B9330000B9330000B9330000BF
:10019000B9330000B9330000B9330000B9330000AF
:1001A000B9330000B9330000B9330000B93300009F
:1001B000B9330000B9330000B9330000574B4CF29B
:1001C000205210B51A804DF628121A8000BF00BFC9
:1001D00003F0F6F8524B4FF010621A60514A9A60E1
:1001E000514ADA60A3F53043203B1A6812F480725A
:1001F00004D14E490A604FF4A8521A604C4B1A7849
:10020000110703D51A7842F008021A70494B4A4C7C
:100210004A482A221A704A4A00239918A14203D256
:10022000195899500433F8E7464B474900228B424E
:1002300002D243F8042BFAE74448454900235A58B0
:100240001A500433B3F5DE7FF9D1424B424A802184
:1002500003F8011B9342FBD1404B3C4A1A60404BD0
:100260000A221A70A3F5805324225A70A0221A7011
:100270009A799207FCD59A79D406FCD4394A9379B5
:1002800003F00C03082B374BF9D103221A714022DB
:100290005A719A799006FCD5324A9179314B4906C8
:1002A000FBD5314A314911600221516020221A7078
:1002B0009A7902F00C020C2AFAD12D4B2D4A1A60C1
:1002C0002D4B2E4A1A6000225A60072243F8042C54
:1002D0002B4AC3F80C2D62B602F088F9134B1B6849
:1002E000DA0705D5274802F0F5F8274B274A1A60A8
:1002F000274B1B785B0609D5234C244A236893427D
:1003000004D1204802F0E6F80023236004F0D6FA76
:1003100003F05CF802F0E8FFFEE700BF0E200540A6
:1003200030800440823F04000100002B14D00340C1
:1003300002D0074000E007404C90FF1F8C5A00009D
:100340006087FF1F4C90FF1F3C96FF1F0082FF1F1E
:100350000000000000E400E05FE400E008ED00E0E1
:100360000050064000400640448004400000030165
:1003700004800440C010050014E000E0FF76010096
:1003800000002020A10A7C041CE00340A5C3945A6D
:1003900000F00740FFFFFFFFFFFFFFFFFFFFFFFF32
:1003A000FFFFFFFFFFFFFFFFFFFFFFFFFFFFFFFF5D
:1003B000FFFFFFFFFFFFFFFFFFFFFFFFFFFFFFFF4D
:1003C000FFFFFFFFFFFFFFFFFFFFFFFFFFFFFFFF3D
:1003D000FFFFFFFFFFFFFFFFFFFFFFFFFFFFFFFF2D
:1003E000FFFFFFFFFFFFFFFFFFFFFFFFFFFFFFFF1D
:1003F000FFFFFFFFFFFFFFFFFFFFFFFFFFFFFFFF0D
:10040000FFFFFFFFFFFFFFFFFFFFFFFFFEFFFFFFFD
:1004100010B5054C237833B9044B13B10448AFF33E
:1004200000800123237010BD4C90FF1F00000000CE
:100430008C5A000008B5064B1BB106480649AFF3BD
:1004400000800648036813B1054B03B1984708BD07
:10045000000000008C5A00005090FF1F4C90FF1FBE
:100460000000000008B5024801F0A4FE08BD00BF6E
:100470006C90FF1F08B5044801F0E0FE4FF47A705D
:1004800002F0A0F808BD00BF7890FF1F10B584B03F
:100490000D48082101F084FE242002F02DFF0446BF
:1004A0000B2300930D2301930C2302930A210922AD
:1004B000072300F035F8054B1C600548214601F084
:1004C0008FFE04B010BD00BF6C90FF1F6890FF1F2F
:1004D0007890FF1FF0B4074600204FF0010CCB08C6
:1004E000FC5C01F00703C3F108039A420BD300FA46
:1004F00003F50CFA03F6013E344044EA05001944C2
:10050000D21AECD10AE090409B1A44FA03F301217D
:1005100001FA02F2013A1340DBB21843F0BC704713
:1005200070B400250571114E06604177827703771C
:100530009DF80C3080F822309DF8103080F8233080
:100540009DF8143080F82130F023C3804FF4A0735D
:100550000381C57445818581012383744FF6FF7241
:100560000282C2810375856170BC704780570000AC
:1005700070B40029C0F20881B0F906408C4240F303
:100580000381002AC0F20081B0F90840944240F390
:10059000FB807E4C2478002C28D072B67B4C2478CB
:1005A00014F0010F07D07A4C26687A4D2D6835403B
:1005B000794E35602560754C247814F0020F07D011
:1005C000764C2668734D6D683540734E75602560B6
:1005D0006E4C247814F0040F07D0714C26686D4DD2
:1005E000AD6835406C4EB560256062B66D4CE46810
:1005F000B4F1384F0AD06B4C6B4D25604FF0384545
:10060000E5604FF078452561684D25608EB292B265
:1006100090F82010090441F0004141F02A01614C9A
:100620006163E16A11F0F00F18BFA56B01F470412E
:10063000B1F5405FF5D8C47F46EA044444F0104465
:1006400058494C630C46E16A11F0F00F18BFA56BD6
:1006500001F47041B1F5405FF5D8C17F46EA01462B
:1006600046F010464F494E630C46E16A11F0F00F18
:1006700018BFA56B01F47041B1F5405FF5D890F853
:100680002010090441F0004141F02B01454C616309
:10069000E16A11F0F00F18BFA56B01F47041B1F5DC
:1006A000405FF5D8C47F42EA044444F010443D4919
:1006B0004C630C46E16A11F0F00F18BFA56B01F412
:1006C0007041B1F5405FF5D8C17F42EA014242F086
:1006D000104234494A63CA6A12F0F00F18BF8C6B9B
:1006E00002F47042B2F5405FF5D890F82020120471
:1006F00042F0004242F02C022A494A63CA6A12F0D0
:10070000F00F18BF8C6B02F47042B2F5405FF5D861
:10071000244A1168C07F43EA004343F0C053536347
:10072000D36A13F0805F04D113F0F00FF8D0936B0D
:10073000F6E71C4B4FF08052DA621960DB6A13F067
:10074000F00F05D0174B9A6BDA6A12F0F00FFAD15E
:100750000E4B1B78C3B113F0010F03D00E4B1A6878
:10076000134B1A60094B1B7813F0020F03D00A4B8E
:100770005A68104B1A60054B1B7813F0040F03D016
:10078000054B9A680C4B1A6070BC70473C93FF1F76
:1007900080E100E02493FF1F3093FF1F84E100E01D
:1007A00088E100E000C0024001401F0000001F80FF
:1007B00000E100E004E100E008E100E0F0B4BDF891
:1007C0001040B0F906608E4240F3268105892EB2B2
:1007D000964240F32181D718013FB742A4BFC2EB34
:1007E00005031BB28D4D2D78002D28D072B68B4D90
:1007F0002D7815F0010F07D0894D2F68894E366886
:100800003E40894F3E602E60844D2D7815F0020FDA
:1008100007D0864D2F68834E76683E40824F7E60BB
:100820002E607E4D2D7815F0040F07D0804D2F6877
:100830007C4EB6683E407C4FBE602E6062B67D4DF9
:10084000ED68B5F1384F0AD07A4D7B4E2E604FF0EF
:100850003846EE604FF078462E61784E2E608FB2AB
:1008600091B29DB24A1E2A4492B290F820301B04E5
:1008700043F0004343F02A036E4E7363F36A13F0B0
:10088000F00F18BFD6F838C003F47043B3F5405FDB
:10089000F4D8C67F47EA064646F01046654B5E63CD
:1008A0001E46F36A13F0F00F18BFD6F838C003F4F1
:1008B0007043B3F5405FF4D8C67F47EA064646F07A
:1008C00010465C4B5E631E46F36A13F0F00F18BFD0
:1008D000B76B03F47043B3F5405FF5D890F8203060
:1008E0001B0443F0004343F02B03524E7363F36A3F
:1008F00013F0F00F18BFB76B03F47043B3F5405F0C
:10090000F5D8C37F41EA034141F01041494B596397
:100910001946CB6A13F0F00F18BF8E6B03F47043C7
:10092000B3F5405FF5D8C37F42EA034242F010427C
:10093000404B5A631A46D36A13F0F00F18BF916BFD
:1009400003F47043B3F5405FF5D890F820301B04F2
:1009500043F0004343F02C03364A5363D36A13F049
:10096000F00F18BF916B03F47043B3F5405FF5D8F7
:10097000304A11E0C37F44EA034343F0104353631A
:10098000D36A13F0F00F18BF916B03F47043B3F503
:10099000405FF5D8013DADB22BB2012BEADC254B0F
:1009A0001968C27F44EA024242F0C0525A631A46B2
:1009B000D36A13F0805F04D113F0F00FF8D0936B7B
:1009C000F6E71C4B4FF08052DA621960DB6A13F0D5
:1009D000F00F05D0174B9A6BDA6A12F0F00FFAD1CC
:1009E0000E4B1B78C3B113F0010F03D00E4B1A68E6
:1009F000134B1A60094B1B7813F0020F03D00A4BFC
:100A00005A68104B1A60054B1B7813F0040F03D083
:100A1000054B9A680C4B1A60F0BC70473C93FF1F63
:100A200080E100E02493FF1F3093FF1F84E100E08A
:100A300088E100E000C0024001401F0000001F806C
:100A400000E100E004E100E008E100E0F0B4BDF8FE
:100A50001040C68837B28F4240F32781B0F9085062
:100A6000954240F32281CF18013F35B2AF42A4BF77
:100A7000C1EB06031BB28E4D2D78002D28D072B627
:100A80008B4D2D7815F0010F07D08A4D2F688A4EB7
:100A900036683E40894F3E602E60854D2D7815F0BA
:100AA000020F07D0864D2F68834E76683E40834FF5
:100AB0007E602E607E4D2D7815F0040F07D0814D9D
:100AC0002F687D4EB6683E407C4FBE602E6062B699
:100AD0007D4DED68B5F1384F0AD07B4D7B4E2E60D1
:100AE0004FF03846EE604FF078462E61784E2E601B
:100AF0001FFA81FC9DB20CF1FF372F44BFB292B2B6
:100B000090F820301B0443F0004343F02A036E4961
:100B10004B63CB6A13F0F00F18BF8E6B03F4704376
:100B2000B3F5405FF5D8C17F4CEA014141F0104177
:100B3000654B59631946CB6A13F0F00F18BF8E6BE3
:100B400003F47043B3F5405FF5D8C17F47EA014134
:100B500041F010415C4B59631946CB6A13F0F00F1A
:100B600018BF8E6B03F47043B3F5405FF5D890F86F
:100B700020301B0443F0004343F02B0352494B63E6
:100B8000CB6A13F0F00F18BF8E6B03F47043B3F50C
:100B9000405FF5D8C17F42EA014141F010414A4B24
:100BA00059631946CB6A13F0F00F18BF8E6B03F42C
:100BB0007043B3F5405FF5D8C37F42EA034242F089
:100BC0001042414B5A631A46D36A13F0F00F18BF14
:100BD000916B03F47043B3F5405FF5D890F8203083
:100BE0001B0443F0004343F02C03374A5363D36A9A
:100BF00013F0F00F18BF916B03F47043B3F5405F2F
:100C0000F5D8314A11E0C37F44EA034343F010436F
:100C10005363D36A13F0F00F18BF916B03F4704362
:100C2000B3F5405FF5D8013DADB22BB2012BEADC44
:100C3000254B1968C27F44EA024242F0C0525A630F
:100C40001A46D36A13F0805F04D113F0F00FF8D086
:100C5000936BF6E71C4B4FF08052DA621960DB6A47
:100C600013F0F00F05D0184B9A6BDA6A12F0F00F00
:100C7000FAD10F4B1B78C3B113F0010F03D00F4B08
:100C80001A68144B1A600A4B1B7813F0020F03D03A
:100C90000A4B5A68104B1A60054B1B7813F0040F6F
:100CA00003D0064B9A680D4B1A60F0BC704700BF2A
:100CB0003C93FF1F80E100E02493FF1F3093FF1F50
:100CC00084E100E088E100E000C0024001401F0034
:100CD00000001F8000E100E004E100E008E100E026
:100CE0002DE9F00FBDF92070BDF82460C48825B24D
:100CF0008D4240F3CF8105890FFA85FC944540F37E
:100D0000C98101EB030808F1FF380FFA84FCE045C4
:100D1000A4BFC1EB04031BB202EB070C0CF1FF3CB8
:100D20002CB2A445A4BFC2EB05052FB2874C247892
:100D3000002C34D072B6854C247814F0010F0BD0FF
:100D4000834CD4F800C0834D2D680CEA0505DFF80C
:100D50001CC2CCF8005025607C4C247814F0020FA3
:100D60000BD07D4CD4F800C07A4D6D680CEA0505B7
:100D7000DFF8F8C1CCF804502560744C247814F0E6
:100D8000040F0BD0754CD4F800C0724DAD680CEA5E
:100D90000505DFF8D8C1CCF80850256062B6704C64
:100DA000E468B4F1384F0AD06D4C6E4D25604FF0B9
:100DB0003845E5604FF0784525616B4D25601FFA99
:100DC00081F808F1FF3C9C441FFA8CFC94B2611E30
:100DD000394489B290F82020120442F0004242F0D7
:100DE0002A025F4D6A639946EA6A12F0F00F18BF53
:100DF000AB6B02F47042B2F5405FF5D84B46C57F4D
:100E000048EA054545F01045554A55631546C8461C
:100E1000EA6A12F0F00F18BFAB6B02F47042B2F541
:100E2000405FF5D84346C57F4CEA054545F010457F
:100E30004B4A55631546C446EA6A12F0F00F18BFD4
:100E4000AB6B02F47042B2F5405FF5D8634690F8A0
:100E50002020120442F0004242F02B02404D6A630F
:100E6000EA6A12F0F00F18BFAB6B02F47042B2F5F1
:100E7000405FF5D86346C27F44EA024444F0104420
:100E8000374A54631446E26A12F0F00F18BFA56B9C
:100E900002F47042B2F5405FF5D8C27F41EA0241E8
:100EA00041F010412E4A51631146CA6A12F0F00F08
:100EB00018BF8C6B02F47042B2F5405FF5D890F821
:100EC0002020120442F0004242F02C0224494A63DE
:100ED000CA6A12F0F00F18BF8C6B02F47042B2F5C0
:100EE000405FF5D8002F40F3B9801D49DFF85CC0A2
:100EF000DFF868A0DFF86090DFF85480DFF870B0AA
:100F0000A7E0C27F46EA024242F010424A63CA6A40
:100F100012F0F00F18BF8D6B02F47042B2F5405F13
:100F2000F5D8013C24B2012CEBD10C68C27F46EA13
:100F3000024242F0C0524A63CA6A12F0805F19D17D
:100F400012F0F00FF8D08A6BF6E700BF3C93FF1F5A
:100F500080E100E02493FF1F84E100E088E100E0ED
:100F600000C0024001401F0000001F803093FF1F9F
:100F700008E100E04FF08052CA620C60CA6A12F0C9
:100F8000F00F04D08A6BCA6A12F0F00FFAD1012F69
:100F90005CDD17F0010F59D09CF80020002A47D0E3
:100FA00012F0010F03D03D4A14683D4A14609CF8CA
:100FB000002012F0020F03D0384A5268394C2260E8
:100FC0009CF8002012F0040F03D0344A9268CBF84A
:100FD00000209CF800205AB372B69CF8002012F052
:100FE000010F08D0D8F800402F4A126822402B4C3D
:100FF0002260C8F800209CF8002012F0020F08D0F0
:10100000D9F80040284A52682240244C6260C9F84E
:1010100000209CF8002012F0040F08D0DAF80040FD
:10102000214A926822401D4CA260CAF8002062B694
:10103000CA68B2F1384F09D01C4A0A604FF03842F2
:10104000CA604FF078420A61194A0A60013F3FB214
:1010500027B1012B7FF769AF1C4652E7154B1B7870
:10106000C3B113F0010F03D00C4B1A680C4B1A607C
:10107000104B1B7813F0020F03D0084B5A68094B32
:101080001A600C4B1B7813F0040F03D0034B9A68C3
:10109000094B1A60BDE8F00F704700BF3093FF1F87
:1010A00000E100E004E100E02493FF1F01401F0085
:1010B00000001F803C93FF1F08E100E000B583B0F3
:1010C000B0F90630B0F908200092019100210A46DB
:1010D000FFF706FE03B05DF804FB00BF10B490F804
:1010E00020301B0443F0004343F036035B4A536354
:1010F000D36A13F0F00F18BF946B03F47043B3F589
:10110000405FF5D801F00301C174032900F29F800C
:10111000DFE801F002295077504A1168C37F1B04B1
:1011200043F0006343F048035363D36A13F0805FD6
:1011300004D113F0F00FF8D0936BF6E7474B4FF064
:101140008052DA621960DB6A13F0F00F05D0434B6E
:101150009A6BDA6A12F0F00FFAD1F023C3804FF4E1
:10116000A073038173E03D4A1168C37F1B0443F001
:10117000006343F028035363D36A13F0805F04D104
:1011800013F0F00FF8D0936BF6E7344B4FF080522A
:10119000DA621960DB6A13F0F00F05D02F4B9A6BFF
:1011A000DA6A12F0F00FFAD14FF4A073C380F02383
:1011B00003814CE0294A1168C37F1B0443F000639C
:1011C00043F088035363D36A13F0805F04D113F0B4
:1011D000F00FF8D0936BF6E7204B4FF08052DA62B5
:1011E0001960DB6A13F0F00F05D01C4B9A6BDA6ABA
:1011F00012F0F00FFAD1F023C3804FF4A0730381F3
:1012000025E0164A1168C37F1B0443F0006343F0D6
:10121000E8035363D36A13F0805F04D113F0F00F37
:10122000F8D0936BF6E70D4B4FF08052DA621960FD
:10123000DB6A13F0F00F05D0084B9A6BDA6A12F0F4
:10124000F00FFAD14FF4A073C380F0230381002381
:10125000438183815DF8044B704700BF00C00240AA
:1012600070B5054690F822300B2B02D0072B40F0CA
:10127000AE8195F8212002F0FB01082940F0A781FA
:1012800095F82310A1F10D00C0B2012800F29F8152
:101290000B2B05D16E4B187820F00100187006E07A
:1012A000072B04D16A4B187840F0010018700C2A03
:1012B00005D1674B1A7822F002021A7006E0082A5C
:1012C00004D1634B1A7842F002021A700D2905D13D
:1012D0005F4B1A7822F004021A7006E00E2904D13E
:1012E0005B4B1A7842F004021A7000F057FE687FD8
:1012F000A97F00F0B5FE70B1687F00F0F7FE0446EC
:10130000E877A87F00F0F2FE204385F82000287FD0
:10131000FF2805D11CE00023EB7785F8203070BD55
:10132000012101F00BF9287F012101F0E3F80520EC
:1013300001F048F9287F002101F0DCF8142001F0C9
:1013400041F9287F012101F0D5F8962001F03AF902
:10135000404B1B78002B28D072B63E4B1B7813F005
:10136000010F07D03C4B19683C4A12680A403C49BF
:101370000A601A60374B1B7813F0020F07D0394B05
:101380001968364A52680A4035494A601A60314B3A
:101390001B7813F0040F07D0334B19682F4A92685B
:1013A0000A402F498A601A6062B6304BDB68B3F19D
:1013B000384F0AD02D4B2E4A1A604FF03842DA606F
:1013C0004FF078421A612B4A1A602B48274A03785B
:1013D000591ECEB24BB3841C437895F8201043EAD3
:1013E000014343F000435363D36A13F0F00F18BF77
:1013F000916B03F47043B3F5405FF5D8A01911E089
:1014000014F8013BE97F43EA014343F0004353638F
:10141000D36A13F0F00F18BF916B03F47043B3F568
:10142000405FF5D88442EBD1D1E7104A116895F8B6
:1014300020301B0443F0006343F011035363D36A6D
:1014400013F0805F1AD113F0F00FF8D0936BF6E72A
:101450003594FF1F3C93FF1F80E100E02493FF1FA2
:101460003093FF1F84E100E088E100E000C002400B
:1014700001401F0000001F800C570000544B4FF02C
:101480008052DA621960DB6A13F0F00F05D0504B1E
:101490009A6BDA6A12F0F00FFAD14E4B1B78C3B197
:1014A00013F0010F03D04C4B1A684C4B1A60494B98
:1014B0001B7813F0020F03D0474B5A68484B1A6051
:1014C000444B1B7813F0040F03D0434B9A68454BF1
:1014D0001A60782001F076F83E4B1B78002B28D05C
:1014E00072B63C4B1B7813F0010F07D03E4B1968C6
:1014F0003E4A12680A4038490A601A60354B1B7828
:1015000013F0020F07D03A4B1968384A52680A4064
:1015100031494A601A602F4B1B7813F0040F07D033
:10152000344B1968314A92680A402B498A601A6024
:1015300062B6274BDB68B3F1384F0AD0244B2E4AF2
:101540001A604FF03842DA604FF078421A612B4A45
:101550001A601F4A116895F820301B0443F000639D
:1015600043F029035363D36A13F0805F04D113F06F
:10157000F00FF8D0936BF6E7154B4FF08052DA621C
:101580001960DB6A13F0F00F05D0114B9A6BDA6A21
:1015900012F0F00FFAD10F4B1B78C3B113F0010F0B
:1015A00003D00D4B1A680D4B1A600A4B1B7813F0D1
:1015B000020F03D0084B5A68094B1A60054B1B7881
:1015C00013F0040F03D0044B9A68064B1A6070BDE9
:1015D00000C002403C93FF1F3093FF1F00E100E07A
:1015E00004E100E008E100E080E100E02493FF1F57
:1015F00084E100E088E100E001401F0000001F805E
:101600002DE9F04F8FB005468B460392BDF860A0E0
:10161000BDF864C09DF86860B0F906208A4240F3C6
:10162000E282B0F908200398824240F3DC8206EBA4
:10163000460201EB4202012A00F1D58200EBC6020C
:10164000012A00F1D082E24540F05681012E18D0E7
:1016500003EB8303374606EB46010A9172000B92B7
:10166000B000099006EB860108910822059200203F
:101670000490012106919F4A9A180D92B146564650
:1016800035E103EB8303039A96B206F1080292B2A6
:1016900003920127974A9A180492B946574680E068
:1016A0000498815C19EA010F18BF43F001035B0045
:1016B000DBB20132052AF3D15C08002B67D01F2C66
:1016C00002D01E2C17D10AE000972846594632B2A4
:1016D0000523FFF7BBF95AE01E2C10D101E04FF0B3
:1016E000000A0AEB0B010097284609B232B2042324
:1016F000FFF7ACF94BE04FF0000A0FFA86F804F060
:101700001C031C2B11D11FFA8AFA0AEB0B0100975C
:10171000284609B242460323FFF798F92401E4B2B0
:101720000AF1040A1FFA8AFA2FE004F01803182BB2
:1017300011D11FFA8AFA0AEB0B010097284609B269
:1017400042460223FFF782F9E400E4B20AF1030AF9
:101750001FFA8AFA19E014F0100F10D01FFA8AFA53
:101760000AEB0B01284609B242463B46FEF700FF52
:10177000A400E4B20AF1020A1FFA8AFA05E0640042
:10178000E4B20AF1010A1FFA8AFA002CA4D14FEA46
:1017900049095FFA89F90136B6B203998E4200F021
:1017A0002282002213467BE70D98815C069808424E
:1017B00018BF43F001035B00DBB20132052AF3D10D
:1017C0005C08002B00F084801F2C02D01E2C23D13B
:1017D00010E00499039B01FB0732CDF800900196BD
:1017E0002846594612B2089BFFF77AFA70E01E2C81
:1017F0001FD101E04FF0000A0AFB07B10498039BD8
:1018000000FB0732CDF800900196284609B212B2CB
:10181000099BFFF765FA5BE00498039900FB071347
:101820004FF0000A1BB207930FFA89F80B9A12B215
:101830000C9204F01C031C2B13D11FFA8AFA07FB2D
:101840000AB1CDF800800196284609B2079A0A9B92
:10185000FFF746FA2401E4B20AF1040A1FFA8AFAF1
:1018600034E004F01803182B13D11FFA8AFA0AFB8C
:1018700007B1CDF800800196284609B2079A0C9B63
:10188000FFF72EFAE400E4B20AF1030A1FFA8AFA1B
:101890001CE014F0100F13D01FFA8AFA0AFB07B1EC
:1018A000CDF800800196284609B2079A4346FFF713
:1018B00017FAA400E4B20AF1020A1FFA8AFA05E054
:1018C0006400E4B20AF1010A1FFA8AFA002C8ED1F0
:1018D00006984300DBB2069304994B1C9BB2049319
:1018E000059A531E9BB20593002B00F07C810022C9
:1018F000134659E7105200009B4A1278002A28D05C
:1019000072B6994A127812F0010F07D0974A106800
:10191000974909680140974801601160924A12781E
:1019200012F0020F07D0944A1068914949680140AB
:101930009048416011608C4A127812F0040F07D071
:101940008E4A10688A49896801408A48816011601E
:1019500062B68B4AD268B2F1384F0AD0884A8949B8
:1019600011604FF03841D1604FF0784111618649E4
:1019700011601FFA8BF406EB460704EB4707013FA3
:10198000BFB2039881B201EBC600013880B295F86E
:101990002020120442F0004242F02A02DFF8E081E7
:1019A000C8F834204246D2F82C8018F0F00F18BF47
:1019B000D2F8389008F47048B8F5405FF3D8EA7F61
:1019C00044EA024444F010446D4A5463D46A14F06B
:1019D000F00F18BFD2F8388004F47044B4F5405FBB
:1019E000F4D8EC7F47EA044444F01044644A54635A
:1019F000D46A14F0F00F18BF976B04F47044B4F578
:101A0000405FF5D895F82020120442F0004242F0E1
:101A10002B025B4C62632246D46A14F0F00F18BFAD
:101A2000976B04F47044B4F5405FF5D8EA7F41EA5F
:101A3000024141F01041524A5163D16A11F0F00F56
:101A400018BF946B01F47041B1F5405FF5D8E97FA0
:101A500040EA014141F01041494A5163D16A11F015
:101A6000F00F18BF906B01F47041B1F5405FF5D8ED
:101A700095F82020120442F0004242F02C02404926
:101A80004A630A46D16A11F0F00F18BF906B01F457
:101A90007041B1F5405FF5D803EB83030821049151
:101AA0004FF00108394A1344354A9B4645E01BF87C
:101AB000070008EA0000002814BF50466046494667
:101AC000EB7F40EA034343F010435363D36A13F0C0
:101AD000F00F18BF946B03F47043B3F5405FF5D873
:101AE0000131CBB29E42EBD80137052FDFD1002068
:101AF000EB7F4CEA034343F010435363D36A13F084
:101B0000F00F18BF916B03F47043B3F5405FF5D845
:101B10000130C3B29E42EBD8039B01330393DBB287
:101B20009E4201D90027C2E74FEA48085FFA88F8C9
:101B30000498431E9BB204932BB1002EF4D00021D5
:101B400003918946EEE70E4B196895F820201204A0
:101B500042F000625A63DA6A12F0805F18D112F024
:101B6000F00FF8D09A6BF6E73C93FF1F80E100E09E
:101B70002493FF1F3093FF1F84E100E088E100E021
:101B800000C0024001401F0000001F8010520000F2
:101B9000164B4FF08052DA621960DB6A13F0F00FD7
:101BA00005D0124B9A6BDA6A12F0F00FFAD1104B93
:101BB0001B78C3B113F0010F03D00E4B1A680E4B04
:101BC0001A600B4B1B7813F0020F03D0094B5A68B5
:101BD0000A4B1A60064B1B7813F0040F03D0054B19
:101BE0009A68074B1A600FB0BDE8F08F00C0024042
:101BF0003C93FF1F3093FF1F00E100E004E100E091
:101C000008E100E02DE9F04F85B080460292039391
:101C1000DDF838A00E46002939D001274FF0000B1F
:101C2000039B5D1C029C00230FFA8AF900E001353A
:101C3000013C07FA04F2164203D00133002CF6D11E
:101C40000EE0002B20DD691EC91AB8F80E200092A4
:101C5000404609B24A461BB2FEF7F8FE5B4613E067
:101C6000002B0ADDE91AB8F80E200092404609B2AE
:101C70000FFA8AF21BB2FEF7E9FE0AF1010A0F9B86
:101C8000013B0F93CCD102E0002CD0D1F5E705B099
:101C9000BDE8F08F2DE9F04F87B00746D0F818B0B7
:101CA0009BF80E308B4209D89BF80F20914205D843
:101CB000CB1A9BF8121001FB03F113E09BF81020E4
:101CC0009142C0F0FF809BF81100814200F2FA803F
:101CD0009BF80F0001300144CB1A9A1A9BF812109E
:101CE00001FB02F1DBF800009BF81220FEF7F2FB8B
:101CF000DBF8083003EB0008404600210322FEF722
:101D0000E9FB002840F0DE809BF813904046032159
:101D10004A46FEF7DFFB044609F103099BF814600D
:101D2000404649463246FEF7D5FB0546B1449BF88E
:101D30001560404649463246FEF7CCFB731E012231
:101D400002FA03F3184204D002FA06F3C31A04930A
:101D500000E00490049A0392B1449BF81660404658
:101D600049463246FEF7B6FB731E012202FA03F320
:101D7000184204D002FA06F3C31A059300E0059056
:101D8000B1449BF81760404649463246FEF7A2FB35
:101D9000B7F90A30002BBCBF00237B817B89039AF3
:101DA00002FA83FABAF1000F04DA049A9B1A7B81D3
:101DB0004FF0000A0AEB0402B7F906309A4210DD30
:101DC0003B7D002B7ED0039B002BAEBF0023049AEB
:101DD00053427B819BF81820BB891344BB814FF091
:101DE000000ABB89B7F908101AB291426ADD7A89F4
:101DF000104478819BF8192002FA83F35B1B059A43
:101E0000C2EB030B0495002D5CD0B1443B465F460A
:101E10009B4609F101064FEAD90318F803206FEA3F
:101E2000090303F0070342FA03F313F0010F20D173
:101E30000025C5EB0409B9F1200F28BF4FF0200998
:101E4000404631464A46FEF745FB014600970123CE
:101E5000019358464A4605EB0A03FFF7D3FE4E446A
:101E60004D44AC42E5D80137049A013A0492B14698
:101E700025E0404631460322FEF72CFB023003905A
:101E800009F104090025661B202E28BF20264046A4
:101E900049463246FEF71EFB01460097039B01931D
:101EA0005846324605EB0A03FFF7ACFEB144354411
:101EB000AC42E8D8039A1744049B9B1A0493049AF3
:101EC000002AA6D107B0BDE8F08F00BF10B584B0DE
:101ED00004460B4682693AB10A2902D100234381A4
:101EE00034E0FFF7D7FE31E00A2907D1827C8389ED
:101EF00003EBC20383810023438127E00D2925D012
:101F0000B0F90A10B0F90C20C0890090208A019025
:101F1000A07C02902046FFF773FBA37C03EB4301F8
:101F2000628902EB410292B26281217D71B112B2EB
:101F3000B4F90610A3EB830001EB40018A4205DDF2
:101F4000A28902EBC303A38100236381012004B0B3
:101F500010BD00BF10B4002906DBC3881CB2A1422B
:101F600003DB591E09B200E000214181002A06DB93
:101F7000038919B28A4203DB5A1E12B200E0002222
:101F800082815DF8044B7047002908BF01218174EC
:101F9000704700BF0182C181704700BF184B1A68AB
:101FA00042F480521A60174B174A1A60174ADA60D7
:101FB00002F180421A61164A1A60164B1B7813F020
:101FC000010F07BF4FF41072134B4FF40072134B05
:101FD0001A60104B1B7813F0020F4FF400720CBF05
:101FE0000F4B104B1A600B4B1B7813F0040F07BFFD
:101FF0004FF410720C4B4FF400720C4B1A60704788
:102000003C80044000C0024001401F000110003825
:1020100000001F803594FF1F18B0044008C0044022
:102020001CB004400CC0044014B0044004C0044080
:10203000A0F10903DBB2012B0CD900F0FB03022B4A
:102040000AD00F280AD01438C0B203288CBF002051
:102050000120704701207047012070470120704720
:1020600038B504460D46FFF7E3FF034600283BD092
:102070002846FFF7DDFF0346B0B3022C02D10A2D3C
:102080000AD128E00A2C02D1022D0AD125E0062C23
:1020900002D1092D0AD122E0092C02D1062D0CD142
:1020A0001FE0142C02D1172D0ED11CE0172C04D1E7
:1020B000B5F1140318BF012316E0152C04D1B5F1B6
:1020C000160318BF01230FE0162C0DD1B5F115032F
:1020D00018BF012308E0002306E0002304E00023EA
:1020E00002E0002300E00023184638BD023815281E
:1020F00042D8DFE800F0114141411D4141170B4139
:102100004141413B41414141232F35294FF4007268
:102110001A4B1A60012070474FF40072184B1A6076
:10212000012070474FF40072164B1A60022070476E
:102130004FF40072144B1A60022070474FF4007283
:10214000124B1A60042070474FF40072104B1A6053
:10215000042070474FF400720E4B1A60082070473D
:102160004FF400720C4B1A60082070474FF4007255
:102170000A4B1A60102070470020704710B00440CE
:1021800000C004400CB0044010C0044014C004401F
:1021900008B0044018C0044004B0044000B004403B
:1021A00001704FF000428260002242808280C28033
:1021B000704700BF10B50446FFF7F0FE20780121FC
:1021C00000F0BCF92078012100F094F9012010BD45
:1021D00008B5034600689989FEF770FF08BD00BF87
:1021E00038B50446002383804FF4A0720281C38077
:1021F000F022428183814FF4FC62C2813222028349
:102200000D4A0262038243828382C3828383016018
:102210001D46E21855850233B3F5207FF9D10846F3
:10222000FFF71EF820680121FEF758FF2046FFF750
:10223000CFFF204638BD00BF0000A04030B583B0BE
:102240000446FFF7C5FF206840F2FF750095642142
:102250000022F023FEF7B2FA20680095DC2100226C
:10226000F023FEF7ABFA20680095002150224FF4CE
:10227000A073FEF7EBFB206800950021A0224FF42D
:10228000A073FEF7E3FB20684FF47871FFF782FE3E
:1022900020680421FFF778FE20681E21B922FFF78D
:1022A00059FE206803685B683C4902229847206811
:1022B000FA21B922FFF74EFE206803685B683849AF
:1022C0000222984720684FF47841FFF763FE2068A8
:1022D00073216922FFF73EFE206803685B6831497D
:1022E0000422984720684FF6FF71FFF753FE2068DD
:1022F0001E216922FFF72EFE206803685B682A49C9
:10230000022298472068FA216922FFF723FE2068FD
:1023100003685B6825490222984720681F21FFF760
:1023200039FE2068FA211922FFF714FE206803689D
:102330005B681F490222984720681E211922FFF777
:1023400009FE206803685B681A49022298472068E2
:102350004FF6E071FFF71EFE206873211922FFF788
:10236000F9FD206803685B681349042298472068D8
:1023700047F60F01FFF70EFE20687321C822FFF712
:10238000E9FD20680321FFF7FFFD206803685B6813
:102390000A490522984703B030BD00BF9857000096
:1023A0009C570000A0570000A8570000AC57000041
:1023B000B0570000B4570000B8570000C0570000E5
:1023C00060223A4B1A70E12201331A70384B1B78A5
:1023D000082B10D1012203F1804303F56C331A60FE
:1023E000132334490B6001F5FF2101F2FC710A60EF
:1023F000314A13601FE00A2B0DD139222F4B1A608E
:1024000013232C490B6001F5FF2101F2FC710A60D6
:10241000294A13600FE00C2B0CBF35223D22274BBD
:102420001A60122323490B6001F5FF2101F2FC71B0
:102430000A60214A1360224B1B7833B10123214AE1
:10244000136002F50022136005E000231D4A1360AB
:1024500002F5002213601C4B1B78012B06D8802349
:102460001A4A136002F5002213601AE0042B06D802
:102470008423164A136002F50022136011E0082B32
:1024800006D88523114A136002F50022136008E084
:10249000102B94BF862387230C4A136002F5002279
:1024A000136001220A4B1A70704700BF00400740BA
:1024B0006087FF1F0CB003400CB00B4008B0034016
:1024C0003E93FF1F20B003406187FF1F24B00340ED
:1024D0003D93FF1F044B00221A6004490A60044A1E
:1024E000106010221A60704714D0034004D00340DB
:1024F00000D0034021281ED80F4B53F8303093F8FA
:10250000802212F0FF0F08D019B1012283F8802039
:102510007047012283F800217047074B03EBC0008E
:10252000436821B11A6842F003021A6070471A68C2
:1025300022F002021A607047C857000021281CD8F8
:102540000E4B03EBC0035B68012908D10B4A52F81C
:10255000302082F880124FF4A2721A607047074A46
:1025600052F83020002082F8800219B94FF48072AE
:102570001A60704740F203121A607047C857000093
:1025800072B60C4B1B680C4A12680C49096862B69B
:1025900011F0806F02D0322B88BF0132C3F5BB33FC
:1025A000FF330749A1FB03039B094FF47A7000FB3B
:1025B0000230704718E000E04093FF1F04ED00E098
:1025C000ABAAAAAA38B50546FFF7DAFF044665B1FB
:1025D000FFF7D6FF001BB0F57A7F03D3013D04D08F
:1025E00004F57A7400F0A0FEF2E738BD10B5254B73
:1025F0004FF400021A604FF080721A604FF00072C0
:102600001A604FF080621A604FF000621A6000207A
:102610001D4B18604BF6FF710433196028231B4AC9
:1026200013600832136008321360083213600832F6
:1026300013600832136008321360083213600922F5
:10264000134C226004F5805404342060043421606B
:102650000434236008342360143C226004F5FE2413
:10266000043420600B4801600B490B6008310B609B
:102670000A4B1A60FFF7A4FEFA20FFF7A3FF00F051
:102680006BFC10BD08E100E0048003400C800340B7
:102690000080034008800B400C800B4000800B4002
:1026A00030B40E4B1B7843F002020D4C04EBC20415
:1026B00060600C48007800280CBF8824C82444EAD5
:1026C0000141074D45F8321080F00100054A1070B5
:1026D00083F00103014A137030BC7047AC93FF1FB5
:1026E0000080FF1F2594FF1F10B4431E032B11D839
:1026F00072B60A4A52F8230050B14268074941F8BD
:102700002320074A32F813400188611A22F8131077
:1027100062B600E000205DF8044B70479C93FF1FF9
:102720002896FF1F013803280DD872B6074B53F8BF
:1027300020302BB1002001305B68002BFBD100E082
:10274000002062B670470020704700BFF093FF1F63
:1027500038B572B601231B491B4C5A1812F8012CCC
:1027600012F0080F24D09A0054F832506DB9164B6D
:1027700003EBC20108304860144943F83210144B8F
:102780001A78013A1A7062B638BD42F0010254F864
:1027900032506DB90C4B03EBC201083048600D4953
:1027A00043F832100A4B1A78013A1A7062B638BDF3
:1027B0000133052BD1D162B60022054B1A7000F00F
:1027C0002FFC38BDD85800000080FF1F8800400053
:1027D0001A94FF1FC800400010B4431E032B37D8C3
:1027E000400140F010001C4A104472B61B4AD25CF3
:1027F000032A09D8DFE802F019021B05083002227B
:1028000016E00830042213E0154A52F823201AB9C2
:10281000134A42F8231003E0124A52F82320516071
:10282000104A42F8231062B612E0032200E00522AB
:102830000A4CE25401F10803436000F00803002B46
:102840000CBF8823C8230A8843EA0243036062B6A8
:102850005DF8044B704700BF0080FF1F5893FF1FB7
:10286000F093FF1F0094FF1F2DE9F84FA34CDFF8F2
:10287000E092DFF8E0A2DFF8E0B22578EDB215F0E3
:10288000040F1DD09E4B1B7813F0FF0F16D09D4BED
:102890001B7803F0FF022BB1531EDBB2994A137071
:1028A00003B900BE984B1B7803F0FF0233B1531EEF
:1028B000DBB2954A13700BB900F0F2FC04232370CD
:1028C00015F0080F00F0DC8299F80030DBB21D092A
:1028D00040F01D828D4D9E0805EBC6035A6855F8E1
:1028E0003630C3F38303013B0C2B00F20C82DFE88C
:1028F00013F0C701C7010A020A020A020A020A0209
:102900000A02E4010A020A020A020D008049136861
:102910000B6052684A607F4A45F8362000227E49A3
:102920000A607A490A618A6101217C4A11709BB26E
:1029300040F28162934218D8B3F5D06F2ED2B3F52E
:10294000817F00F01E8106D8802B00F0C980822B89
:1029500000F0CC8062E140F20232934200F0268126
:10296000B3F5A06F00F05E8158E142F2210293427C
:1029700000F0828107D8B3F5086F00F0AB80B3F5A3
:10298000106F11D04AE142F22122934200F04181BE
:1029900042F22132934200F045813FE1604B5D6895
:1029A000002D40F0188130E1594B9A78544B1A7041
:1029B000564D05F180062B6A13F0800F03D0686A2C
:1029C000083800F02DFB0835B542F4D1DFF88C81D2
:1029D00000263746534AB05828B1456800F020FB1E
:1029E0000DB12846F9E700234E4973504E4AB350C3
:1029F0004E4BF05828B1456800F012FB0DB1284647
:102A0000F9E7002349497350494AB35028F8023F77
:102A1000484BFB5C023B032B0AD8DFE803F00206BD
:102A200002060022434BDA5502E00122414BDA55FF
:102A300001370436102ECDD100223F4B1A700125EC
:102A40003E4EDFF81C81314F05EB080313F8013CC3
:102A500006F8043B13F0080F2DD000F0C1FA48B17E
:102A6000A90007EB451200F108035360344A47F808
:102A7000312007E0AB00002247F833202E4B1A78B4
:102A800001321A7000F0ACFA58B1AB0043F0010308
:102A900007EBC30100F108024A601E4A47F83320E1
:102AA00009E0AB0043F00103002247F83320224B3A
:102AB0001A7801321A70AA0042F00201002347F886
:102AC000313042F0030247F8323001351D4B9E424F
:102AD000BAD116E20A4B1B781B4D2B700127A6E0DA
:102AE000194D00232B706B700227A0E0084B9B88C8
:102AF000042B37D90F22154B1A70BDE080200740F8
:102B00002494FF1FAD93FF1F2694FF1F0080FF1F1B
:102B10001094FF1FC80040004493FF1F2594FF1F1F
:102B2000DC5800009C93FF1F4893FF1FF093FF1F8A
:102B30000094FF1F5893FF1F1A94FF1FC4200740E3
:102B400088004000D42007401C94FF1FC02007408D
:102B50009020074094200740982007402696FF1FAA
:102B6000D85800009E4A0021117051709D4A12F8F9
:102B7000233013F0020F58D0994D01232B700227F8
:102B800055E0994B9B8803F07F03042B02DC964AA7
:102B900052881AB10F22934B1A706DE0914A12F8C5
:102BA000231021F0020102F82310AAE18E4B9B882A
:102BB00003F07F03042B02DC8B4A52881AB10F22E8
:102BC000884B1A7058E0874A12F8231041F002012E
:102BD00002F8231095E1844B5E889F88834BA3F114
:102BE0000C02114633F80C0CB04209D133F80A0C30
:102BF000B84205D1360A032E0CBF2F78178916E08C
:102C00000D690C330C32002DEBD10F22754B1A706D
:102C100032E0754B9A78764B1A7072E10F22714B45
:102C20001A7029E000273D4601E002276C4D6E4BEB
:102C3000DB889F4228BF1F46402F34BF3E464026B8
:102C400028463146FFF72CFD3544BF1B03D13F2EEC
:102C500000F25C8110E0402F34BF3E4640262846FB
:102C60003146FFF71DFD3544BF1B01D13F2E03D96F
:102C7000604B1D60604B1F8001238AF8003042E0EA
:102C8000594B198842F22103994212D15B4BD81D4E
:102C900012F8011B03F8011F8342F9D1584B1B683E
:102CA000862B02D10F22574B1A7000200146FFF7E6
:102CB000F7FC554B45F8363025E04E4B1E68BEB14B
:102CC0004D4FB7F80080B8F1400F34BF454640255E
:102CD00030462946FFF7E4FCC5EB08039BB23B8076
:102CE0000BB9402D01D1354400E00025414B1D605A
:102CF0003D4B1B88B3F5A06F05D13B4B00225A70AA
:102D00009B788BF8003001238AF80030B5E03F4E05
:102D10009F0806EBC708D8F80420A2F10800013D7F
:102D2000EDB213F0080F47D000F07AF9384B53F8A2
:102D300025304BB35A68364941F8252003F1080283
:102D4000C8F80420334A525D032A12D8DFE802F0A3
:102D500002060A0E03212F4A51550AE002212D4A8C
:102D6000515506E005212B4A515502E00421294A1C
:102D7000515518F0080F0CBF8822C8221B8842EA60
:102D8000034346F8373078E0224B5B5D032B0BD8CA
:102D9000DFE803F07373020600221E4B5A556CE005
:102DA00001221C4B5A5568E018F0080F0CBF022294
:102DB0000322184B5A5560E056F837301B0C22F8A6
:102DC000083C002B51D0002322F8063C42F8043C7A
:102DD000114B53F825300BBB0F4B43F8250021E076
:102DE0001C94FF1FC02007401094FF1FE8580000EC
:102DF0003494FF1F4493FF1F1894FF1F2F96FF1F4B
:102E00003096FF1FAD93FF1FC80040000080FF1FDA
:102E1000F093FF1F5893FF1F9C93FF1F3F4B53F8E6
:102E2000253058603D4B43F825003D4B33F81510D5
:102E300032F8082C0A4423F8152000F0D1F860B1CC
:102E400000F10803C8F8043018F0080F354B364A73
:102E500008BF134646F837300FE0002346F83730F6
:102E6000324B1A7801321A7007E018F0080F2D4B18
:102E70002D4A08BF134646F8373008232370FCE478
:102E800015F0010F22D02A4902230B700022294B92
:102E90001A70294B24481860284C5C6098602848B8
:102EA000D8601A619A610D20264B1870FF232648BE
:102EB00003700838037018300270244A13709F2280
:102EC000234B1A7001230B70BDE8F88F15F0800FAB
:102ED00005D00D221B4B1A708022403B1A7015F052
:102EE000020F06D0184B1A78D2B21A700222083B91
:102EF0001A7015F0100F0ED01022164B1A70BDE884
:102F0000F88F00200146FFF7CBFBB5E628460021ED
:102F1000FFF7C6FBB0E6BDE8F88F00BF4893FF1F80
:102F20002896FF1FC8004000880040001A94FF1F29
:102F300094200740AC93FF1F0080FF1F5C93FF1F8E
:102F4000B093FF1FC0200740882007408C20074017
:102F5000842007408020074008B501F07DFA002357
:102F60001B491A465A50C81842600833882BF9D1B9
:102F7000184B1A6842F480221A60154BC3F30721DC
:102F8000154A1170C3F30741143211701B0E04323D
:102F90001370FF23343A137008321370783A1370A9
:102FA00001238432137000216C3211707C3A13704B
:102FB00070220A4B1A704FF40072A3F241331A6068
:102FC000102203F1C04303F5C8231A7008BD00BFE7
:102FD0000080FF1F348004409C20074049E400E04B
:102FE00072B60D4B1A68B2FA82F30B2B02D962B695
:102FF000002070474FF00041D94022EA0102064903
:103000000A6062B6054903EBC303DB00C81800225F
:10301000CA504260704700BF6487FF1F0084FF1FD3
:1030200008B50F4BC31A0F4AA2FB03131B090B2B46
:1030300014D80D4A12783AB10C4A127812F0FF0FE8
:1030400002D0FFF785FB08BD72B6094A4FF0004178
:1030500021FA03F311681943116062B608BD00BF7D
:103060000084FF1F398EE3381A94FF1F2494FF1F3A
:103070006487FF1F10B5134B1B6853B9124B1B78A5
:1030800013F0FF0F18D00320FFF72EFB0D4B186035
:10309000A8B10C4B186843885A1C03441C7A038857
:1030A0009A4206D3FFF7BCFF0022064B1A60204667
:1030B00010BD4280204610BD4FF0FF3010BD4FF0D4
:1030C000FF3010BD3094FF1F2494FF1F08B50D4B37
:1030D0001B6883B90C4B1B7813F0FF0F08D003203B
:1030E000FFF702FB074B186028B94FF0FF3008BD0F
:1030F0004FF0FF3008BD034B1B685A881344187A01
:1031000008BD00BF3094FF1F2494FF1F044B988814
:10311000044B1B681BB11A885B88D31A184470478C
:103120002896FF1F3094FF1F2DE9F0470446012227
:10313000374B1A700E46002964D0DFF8E080DFF8C4
:10314000E0909A46334FD8F8003083BB99F80030AE
:1031500013F0FF0F06D100222D4B1A704FF0FF30F5
:10316000BDE8F0874AF2F9250420FFF7DBFA0728CB
:103170000AD801238AF80030FFF732FFC8F80000B0
:10318000A8B900238AF80030013D01D03B7833B163
:103190000122204B1A704FF0FF30BDE8F08700F09D
:1031A000C3F899F8003013F0FF0FDDD1D3E7002307
:1031B0003B70D8F800104A88C2F14005AE4238BFD3
:1031C000354602F108030B442A444A80761B3DB180
:1031D000254414F8012B03F8012BAC42F9D100E08F
:1031E00025464B883F2B07D940230B800420FFF74F
:1031F000F3FA0023C8F800300522074B1A700EB10D
:103200002C46A0E70020024B1870BDE8F08700BFF5
:103210002794FF1F2C94FF1F2694FF1F2894FF1F45
:103220002494FF1F00B583B002AB03F8010D1846CC
:103230000121FFF779FF03B05DF804FB10B5144BD3
:103240001B7813F0FF0F21D00122124B1A70124B82
:10325000196851B10024114B1C704B880B8004205D
:10326000FFF7BAFA0C4B1C600DE0FFF7B9FE014600
:1032700030B10022094B1A700420FFF7ADFA02E0CA
:103280000122064B1A700022024B1A7010BD00BFBB
:103290002494FF1F2794FF1F2894FF1F2694FF1FCD
:1032A00008B50E4B1B7813F0FF0F16D10C4B1968A5
:1032B00041B14B880B800420FFF78EFA0022084BA7
:1032C0001A6008BDFFF78CFE014618B10420FFF715
:1032D00083FA08BD0122034B1A7008BD2794FF1F13
:1032E0002894FF1F2694FF1F08B5FDF7BBF8FDF7D4
:1032F000C1F800F019F8FAE708B501F007FB08BDBE
:10330000F8B506460F46144652B1002533681B68CF
:10331000304617F8011B98470544013CF6D100E000
:1033200000252846F8BD00BF08B50F4B1B78CBB968
:1033300001220D4B1A70FFF7E9FE08B101F0AEFA59
:1033400000F07EFA08B101F051F900F06FFD08B10C
:1033500001F0E2F900F0D0FF08B101F073FA0022A9
:10336000014B1A7008BD00BF3694FF1F024B1A684C
:1033700001321A60704700BF4093FF1F08B50D4C23
:10338000236813F4802F01D0FFF76EFA236813F43B
:10339000806F01D000F0DEFA236813F4006F01D0D3
:1033A00000F0A8FD236813F4805FE9D000F0F4FF7B
:1033B000E6E700BF3480044008B5FFF7DFFF00BF39
:1033C0001022014B1A80704700200540704700BF53
:1033D000024A136818441060184670476887FF1F38
:1033E000EFF31383ABB9EFF31083ABB9EFF30583BE
:1033F00023B10F2B05D9094A985C03E04FF4807084
:1034000000E00020EFF311833BB1834238BF184640
:1034100070474FF0FF30704700207047F0E300E046
:1034200030B40023B0FBF2F402FB14041D46092C57
:1034300094BF30343734E4B2CC54B0FBF2F008B16E
:103440000133EFE70D4400226A70934207DD885C88
:10345000CC5C8C54C8540132013B9A42F7DB0846DD
:1034600030BC7047194B1A6842F480621A6000231E
:10347000174A1370174A1370174A1370174A1370BC
:10348000174A137040F21332164B1A604FF4517200
:1034900004331A60C0F34432134B1A70C0F347125E
:1034A0005A7000F01F00987204229A700221D97499
:1034B0005A7588221A743C22DA7040220B4B1A701B
:1034C0004FF40052A3F229331A607047348004404D
:1034D000C094FF1F3D94FF1FC894FF1FC194FF1F9E
:1034E0003C94FF1F40A0044000A006402DE400E0F3
:1034F000164B9B7803F0EC0300F00302134310F02B
:10350000040F18BF43F01003104A937000F00F032C
:10351000042B04D11346927942F040029A710B4B6E
:103520005A7902F0EF0210F0100F18BF42F01002AB
:10353000064B5A719B7903F0EF0310F0200F18BF70
:1035400043F01003014A9371704700BF00A006408A
:1035500010B5144B1B6813F4806F21D0124B1B78ED
:1035600013F0FF0F06D0104CFFF7DEFE237813F0A8
:10357000FF0FF9D14FF400520C4B1A6000230C4A94
:10358000D37040F203120B490A6004310A600A4A00
:1035900013700A4A13700A4B1B680BB101221A7090
:1035A00010BD00BF348004403C94FF1F84E100E064
:1035B00000A0064040A00440C094FF1F3D94FF1FA0
:1035C0003894FF1F10B50446094A137813F0FF0F13
:1035D000FBD120460121FEF7B1FF20460021FEF776
:1035E00089FF044B53F83420034B1A6010BD00BF11
:1035F0003C94FF1FC8570000C494FF1F10B50D4B2B
:103600001B6813F4806F12D021280CD80A4C0B4B86
:1036100053F8303023600121FEF790FF2368002229
:103620001A70012010BD0020034B186010BD00204F
:1036300010BD00BF348004403894FF1FC8570000FD
:10364000114B1B6813F4806F1BD0122804D140F279
:1036500002320E4B1A600DE0142804D140F20232FF
:103660000B4B1A6006E00B4B5A7B02F0FE025A73BA
:1036700000207047074B5A7B42F001025A73012029
:1036800070470020704700BF348004400CA0044005
:1036900014C0044000A006402DE9F04107461F4B2E
:1036A0001B6813F4806F37D01D4B1B680BB10122D0
:1036B0001A701C4B1C780134402C28BF00241A4D72
:1036C0001A4EDFF86C8017E0FFF78AFE40280FDC07
:1036D000337913F0800F0FD02B780133402B28BFA4
:1036E000002318F80320D2B2F271DBB22B7003E092
:1036F000FF2801DDFFF718FE2B78DBB29C42E3D0F8
:10370000FFB20B4B1F5501220A4B1A70E4B2054B56
:103710001C70BC22054BDA70BDE8F0813480044097
:10372000C494FF1FC894FF1FC194FF1F00A0064050
:103730004094FF1F3C94FF1F2DE9F84F0746284B8C
:103740001B6813F4806F49D0264B1B680BB1012214
:103750001A7007EB010B5F453DD2DFF89890224EBF
:10376000DFF88C80DFF890A099F800400134402CFD
:1037700028BF00243578EDB2A54220D1BC2388F8BB
:103780000330FFF72DFE402811DC98F8043013F0C9
:10379000800F10D033780133402B28BF00231AF854
:1037A0000320D2B288F80720DBB2337003E0FF2891
:1037B00001DDFFF7B9FD3378DBB29D42E1D017F8A8
:1037C000013B0AF804300122084B1A70E4B289F870
:1037D00000405F45C8D1BC22054BDA70BDE8F88FC8
:1037E00034800440C494FF1FC194FF1F3C94FF1F0A
:1037F00000A00640C894FF1F4094FF1F10B5064B61
:103800001B7813F0FF0F06D0034CFFF78DFD2378D4
:1038100013F0FF0FF9D110BD3C94FF1F064B1B782E
:10382000DBB2064A1278D2B293422CBF3F3202F189
:10383000FF32D01A704700BFC894FF1FC194FF1F0A
:10384000054B1878C0B2054B1B78DBB2984238BFE5
:103850004030C01A704700BFC094FF1F3D94FF1F47
:1038600010B4184B1A78D2B2174B1B78DBB29A42BD
:1038700018D001333F2B18D81449C85CC0B2DCB251
:1038800011490C7012490968C9B19A4203D300E08A
:103890000023D31A01E04032D31A1A2B0FDC002385
:1038A0000B700CE04FF0FF3009E0084B1878C0B205
:1038B0000021054B1970064B19680029E8D15DF805
:1038C000044B7047C094FF1F3D94FF1F8094FF1F5F
:1038D0003894FF1F094B1A78D2B2094B1B78DBB220
:1038E0009A4207D00133402B28BF0023054AD05C01
:1038F000C0B270474FF0FF30704700BFC094FF1F49
:103900003D94FF1F8094FF1F0D4B1B6813F4806FC5
:1039100014D00C4BDA7802F0CB02DA7040225A74E1
:10392000DA7842F03402DA70074B1A78D2B2074BD9
:103930001A70074B1B680BB100221A70704700BF4A
:103940003480044000A006403D94FF1FC094FF1F38
:103950003894FF1F70B43D4B1B7913F0300F33D0F8
:1039600072B63A4B9B7D03F0FF022BB9374BDA79E5
:1039700040225A7462B627E062B6354B1978C9B254
:10398000344B1C78E4B2314D334EEB79D8B24B1C3A
:10399000402B28BF0023A3421CBFF0541946531EDE
:1039A00013F0FF02F1D1CAB2294B1A702B4B1B68DE
:1039B00053B1A1422EBFC4EB0101C4F14004091967
:1039C0002729C4BF01221A70204BDA78D2B212F034
:1039D000800F27D01B7913F0800F23D0204B1C7849
:1039E000E4B2204B1B78DBB29C4210D017491E4D2D
:1039F00001E0A3420BD00133402B28BF00230879FC
:103A0000E85CC0B2C871087DC0B20728F1D9DBB24A
:103A100014490B700D4B1B7913F0800F02D07C21E1
:103A20000A4BD97012F0400F0ED0084B1B7913F0DF
:103A3000400F09D000220D4B1A700D4B1B6803B1CB
:103A40001A703C22014BDA7070BC704700A006402F
:103A5000C094FF1F3D94FF1F8094FF1F3894FF1FE9
:103A6000C894FF1FC194FF1F4094FF1F3C94FF1F89
:103A7000C494FF1F194B1A6842F400621A600023B5
:103A8000174A1370174A1370174A1370174A1370A6
:103A9000174A137040F21332164B1A604FF45172EA
:103AA00004331A60C0F34432134B1A70C0F3471248
:103AB0005A7000F01F00987204229A700221D97483
:103AC0005A7588221A743C22DA7040220B4B1A7005
:103AD0004FF40042A3F22B331A6070473480044045
:103AE0003495FF1FCA94FF1F3C95FF1F3595FF1F9C
:103AF000C994FF1F0CB0044000B006402FE400E062
:103B0000164B9B7803F0EC0300F00302134310F014
:103B1000040F18BF43F01003104A937000F00F0316
:103B2000042B04D11346927942F040029A710B4B58
:103B30005A7902F0EF0210F0100F18BF42F0100295
:103B4000064B5A719B7903F0EF0310F0200F18BF5A
:103B500043F01003014A9371704700BF00B0064064
:103B600010B5114B1B6813F4006F1CD00F4B1B7862
:103B700013F0FF0F06D00D4CFFF7D6FB237813F0A0
:103B8000FF0FF9D14FF40042094B1A600023094A94
:103B9000D37040F2031208490A6004310A60074AF0
:103BA0001370074A137010BD34800440C994FF1F7E
:103BB00084E100E000B006400CB004403495FF1FE3
:103BC000CA94FF1F10B50446094A137813F0FF0F7B
:103BD000FBD120460121FEF7B1FC20460021FEF773
:103BE00089FC044B53F83420034B1A6010BD00BF0E
:103BF000C994FF1FC85700003895FF1F0D4B1B6865
:103C000013F4006F13D016280AD14FF440720A4BF8
:103C10001A600A4B5A7B42F008025A73012070471F
:103C2000064B5A7B02F0F7025A73002070470020BF
:103C3000704700BF3480044004B0044000B0064028
:103C40000D4B1B6813F4006F13D017280AD14FF4E3
:103C500040720A4B1A600A4B5A7B42F001025A73B7
:103C600001207047064B5A7B02F0FE025A73002077
:103C700070470020704700BF3480044008B0044003
:103C800000B006402DE9F04107461F4B1B6813F4B6
:103C9000006F37D01D4B1B680BB101221A701C4BF3
:103CA0001C780134282C28BF00241A4D1A4EDFF846
:103CB0006C8017E0FFF794FB40280FDC337913F09A
:103CC000800F0FD02B780133282B28BF002318F842
:103CD0000320D2B2F271DBB22B7003E0FF2801DDCA
:103CE000FFF722FB2B78DBB29C42E3D0FFB20B4BF9
:103CF0001F5501220A4B1A70E4B2054B1C70BC22FE
:103D0000054BDA70BDE8F081348004403895FF1F20
:103D10003C95FF1F3595FF1F00B00640CC94FF1F58
:103D2000C994FF1F2DE9F84F0746284B1B6813F471
:103D3000006F49D0264B1B680BB101221A7007EBAC
:103D4000010B5F453DD2DFF89890224EDFF88C8062
:103D5000DFF890A099F800400134282C28BF0024F7
:103D60003578EDB2A54220D1BC2388F80330FFF7A7
:103D700037FB402811DC98F8043013F0800F10D086
:103D800033780133282B28BF00231AF80320D2B23E
:103D900088F80720DBB2337003E0FF2801DDFFF76E
:103DA000C3FA3378DBB29D42E1D017F8013B0AF841
:103DB00004300122084B1A70E4B289F800405F45D4
:103DC000C8D1BC22054BDA70BDE8F88F34800440BE
:103DD0003895FF1F3595FF1FC994FF1F00B006409F
:103DE0003C95FF1FCC94FF1F10B5064B1B7813F0BA
:103DF000FF0F06D0034CFFF797FA237813F0FF0F5D
:103E0000F9D110BDC994FF1F064B1B78DBB2064ADF
:103E10001278D2B293422CBF273202F1FF32D01A6D
:103E2000704700BF3C95FF1F3595FF1F054B187865
:103E3000C0B2054B1B78DBB2984238BF4030C01A85
:103E4000704700BF3495FF1FCA94FF1F0A4B1A78B2
:103E5000D2B20A4B1B78DBB29A4209D00133402B15
:103E600028BF0023064AD05CDBB2044A13707047B7
:103E70004FF0FF30704700BF3495FF1FCA94FF1FFB
:103E8000F494FF1F094B1A78D2B2094B1B78DBB2AE
:103E90009A4207D00133402B28BF0023054AD05C4B
:103EA000C0B270474FF0FF30704700BF3495FF1F1E
:103EB000CA94FF1FF494FF1F0A4B1B6813F4006F92
:103EC0000FD0094BDA7802F0CB02DA7040225A7434
:103ED000DA7842F03402DA70044B1A78D2B2044B2A
:103EE0001A7070473480044000B00640CA94FF1F27
:103EF0003495FF1F70B4364B1B7913F0300F25D06B
:103F000072B6334B9B7D03F0FF022BB9304BDA794D
:103F100040225A7462B619E062B62E4B1978C9B2C3
:103F20002D4B1D78EDB22A4C2C4EE379D8B24B1CA8
:103F3000402B28BF0023AB421CBFF0541946531E30
:103F400013F0FF02F1D1C9B2224B1970204BDA787D
:103F5000D2B212F0800F27D01B7913F0800F23D03C
:103F60001F4B1C78E4B21F4B1B78DBB29C4210D075
:103F700017491D4D01E0A3420BD00133282B28BF68
:103F800000230879E85CC0B2C871087DC0B2072878
:103F9000F1D9DBB213490B700D4B1B7913F0800F75
:103FA00002D07C210A4BD97012F0400F0ED0084B82
:103FB0001B7913F0400F09D000220C4B1A700C4BE8
:103FC0001B6803B11A703C22014BDA7070BC704759
:103FD00000B006403495FF1FCA94FF1FF494FF1FE2
:103FE0003C95FF1F3595FF1FCC94FF1FC994FF1F01
:103FF0003895FF1F174B1A6842F480521A6000234D
:10400000154A1370154A1370154A1370154A137028
:10401000154A137040F21331144A11604FF4517174
:1040200004321160C0F34431114A1170C0F34711DA
:10403000517000F01F009072937013742C23D37092
:1040400040220C4B1A704FF40032A3F22D331A6049
:10405000704700BF34800440A895FF1F3E95FF1FA6
:10406000B095FF1FA995FF1F3D95FF1F08C0044095
:1040700000C0064031E400E0164B9B7803F0EC03EF
:1040800000F00302134310F0040F18BF43F01003B5
:10409000104A937000F00F03042B04D11346927959
:1040A00042F040029A710B4B5A7902F0EF0210F085
:1040B000100F18BF42F01002064B5A719B7903F0A3
:1040C000EF0310F0200F18BF43F01003014A937163
:1040D000704700BF00C0064010B5114B1B6813F4B9
:1040E000805F1CD00F4B1B7813F0FF0F06D00D4CD8
:1040F000FFF71AF9237813F0FF0FF9D14FF40032CC
:10410000094B1A600023094AD37040F20312084990
:104110000A6004310A60074A1370074A137010BD21
:10412000348004403D95FF1F84E100E000C006405C
:1041300008C00440A895FF1F3E95FF1F10B5044618
:10414000094A137813F0FF0FFBD120460121FEF737
:10415000F5F920460021FEF7CDF9044B53F8342041
:10416000034B1A6010BD00BF3D95FF1FC8570000EC
:10417000AC95FF1F0D4B1B6813F4805F14D0022811
:104180000BD14FF440720A4B1A6003F500335A7B8F
:1041900042F008025A7301207047064B5A7B02F026
:1041A000F7025A73002070470020704734800440A3
:1041B00000C0044000C006400D4B1B6813F4805F34
:1041C00013D00E280AD14FF440720A4B1A600A4BE2
:1041D0005A7B42F001025A7301207047064B5A7B0A
:1041E00002F0FE025A73002070470020704700BFA3
:1041F0003480044004C0044000C006402DE9F04172
:1042000007461F4B1B6813F4805F37D01D4B1B689C
:104210000BB101221A701C4B1C780134282C28BFCA
:1042200000241A4D1A4EDFF86C8017E0FFF7D8F81B
:1042300040280FDC337913F0800F0FD02B78013337
:10424000282B28BF002318F80320D2B2F271DBB26A
:104250002B7003E0FF2801DDFFF766F82B78DBB257
:104260009C42E3D0FFB20B4B1F5501220A4B1A7040
:10427000E4B2054B1C70AC22054BDA70BDE8F0814E
:1042800034800440AC95FF1FB095FF1FA995FF1F18
:1042900000C006404095FF1F3D95FF1F38B50546FD
:1042A0000C4629B115F8010BFFF7A8FF013CF9D125
:1042B00038BD00BF10B5064B1B7813F0FF0F06D0BA
:1042C000034CFFF731F8237813F0FF0FF9D110BD3D
:1042D0003D95FF1F064B1B78DBB2064A1278D2B21F
:1042E00093422CBF273202F1FF32D01A704700BF31
:1042F000B095FF1FA995FF1F054B1878C0B2054B5D
:104300001B78DBB2984238BF4030C01A704700BFFC
:10431000A895FF1F3E95FF1F0A4B1A78D2B20A4B91
:104320001B78DBB29A4209D00133402B28BF00230F
:10433000064AD05CDBB2044A137070474FF0FF307E
:10434000704700BFA895FF1F3E95FF1F6895FF1F90
:10435000094B1A78D2B2094B1B78DBB29A4207D0CC
:104360000133402B28BF0023054AD05CC0B2704700
:104370004FF0FF30704700BFA895FF1F3E95FF1F0D
:104380006895FF1F024B1A78D2B2024B1A70704721
:104390003E95FF1FA895FF1F264B1B7913F0200F9A
:1043A00012D0244BDB79D9B2234B1B780133402B3D
:1043B00028BF0023214A1278D2B29A4204D0204A60
:1043C000D154DBB21C4A13701A4BDB78DBB213F00A
:1043D000800F1CD0174A127912F0800F17D0194A9B
:1043E0001178C9B2184A1278D2B2914203D16C2125
:1043F000104AD1700BE00132282A28BF002213494D
:10440000885CC0B20B49C871D2B20F490A7013F070
:10441000400F0ED0074B1B7913F0400F09D000223C
:104420000B4B1A700B4B1B6803B11A702C22014BFB
:10443000DA70704700C00640A895FF1F3E95FF1F29
:104440006895FF1FB095FF1FA995FF1F4095FF1F9F
:104450003D95FF1FAC95FF1F00B585B072B61B4B95
:1044600070221A7041211A4A11700F21013A1170FD
:1044700080221A701A46137813F0800FFBD0154B68
:10448000186862B6144B98429CBF00EB8000400055
:1044900001A90A22FEF7C4FF9DF804307BB908E0A9
:1044A00001A9595C31B19180023201330A2BF7D155
:1044B00000E0002301335B00084A137003E0074A61
:1044C00053800123ECE705B05DF804FB00000240D7
:1044D00007000240080002407F969800F887FF1FFF
:1044E00008B503681B68C9B2984708BD08B50368DA
:1044F0001B68C9B2984708BD08B503681B68C9B2F4
:10450000984708BD08B503681B68C9B2984708BD3D
:1045100008B54B0803F1376000F5D830B0FBF1F077
:10452000FEF7A0FF08BD00BF10B514464B0803F10D
:10453000376000F5D830B0FBF1F0FEF793FF20466E
:10454000FEF7D6FF10BD00BF08B5FFF701F808BDA4
:1045500008B50846FFF736F808BD00BF08B508469D
:10456000FFF74CF8003018BF012008BD08B5084619
:10457000FFF766F8003018BF012008BD08B5FFF747
:104580005FF908BD08B5FFF7A5F908BD08B5FFF745
:1045900067F908BD08B5FFF731F908BD08B5FFF7A1
:1045A000B3F908BD08B5FFF739F908BD08B50846E5
:1045B000FFF772F8012008BD08B50846FFF76CF850
:1045C000012008BD10B5144608461146FFF7B4F89F
:1045D000204610BD38B50D46084600F051FC044693
:1045E00028462146FFF7A8F8204638BD704700BF8F
:1045F000044B00221A714FF47A7199601A73024ABF
:104600001A607047B495FF1F3859000008B5036859
:104610001B68C9B2984708BD08B503681B68C9B2D2
:10462000984708BD08B503681B68C9B2984708BD1C
:1046300008B503681B68C9B2984708BD08B54B08A0
:1046400003F1376000F5D830B0FBF1F0FFF712FA54
:1046500008BD00BF10B514464B0803F1376000F5E4
:10466000D830B0FBF1F0FFF705FA2046FFF748FA23
:1046700010BD00BF08B5FFF773FA08BD08B50846BE
:10468000FFF7A0FA08BD00BF08B50846FFF7B6FA65
:10469000003018BF012008BD08B50846FFF7D0FA62
:1046A000003018BF012008BD08B5FFF7BFFB08BDEB
:1046B00008B5FFF7E7FB08BD08B5FFF7C7FB08BD66
:1046C00008B5FFF791FB08BD08B5FFF7F5FB08BD7E
:1046D00008B5FFF799FB08BD08B50846FFF7D2FA01
:1046E000012008BD08B50846FFF7CCFA012008BD37
:1046F00010B5144608461146FFF714FB204610BDBE
:1047000038B50D46084600F0BBFB04462846214656
:10471000FFF708FB204638BD704700BF044B00225E
:104720001A714FF47A7199601A73024A1A607047CD
:10473000C495FF1F9059000008B503681B68C9B2F3
:10474000984708BD08B503681B68C9B2984708BDFB
:1047500008B503681B68C9B2984708BD08B5036867
:104760001B68C9B2984708BD08B54B0803F1B7608C
:1047700000F55840B0FBF1F0FFF73CFC08BD00BF6E
:1047800010B514464B0803F1B76000F55840B0FB74
:10479000F1F0FFF72FFC2046FFF76EFC10BD00BFC5
:1047A00008B5FFF799FC08BD08B50846FFF7C6FC39
:1047B00008BD00BF08B50846FFF7DCFC003018BF95
:1047C000012008BD08B50846FFF7F6FC003018BF09
:1047D000012008BD08B5FFF78FFD08BD08B5FFF73C
:1047E000B7FD08BD08B5FFF797FD08BD08B5FFF791
:1047F00061FD08BD08B5FFF7C5FD08BD08B5FFF7A9
:1048000069FD08BD08B50846FFF7F8FC012008BDA2
:1048100008B50846FFF7F2FC012008BD10B51446A4
:1048200008461146FFF73AFD204610BD38B50D4643
:10483000084600F025FB044628462146FFF72EFDDA
:10484000204638BD704700BF044B00221A714FF458
:104850007A7199601A73024A1A607047D495FF1FE3
:10486000E859000008B5FEF751FC08BD08B5FEF791
:1048700001FC08BD08B5FEF729FC08BD08B5FEF728
:10488000DDFC08BD08B50846FEF7CCFC08BD00BF3E
:1048900008B508461146FEF747FC08BD704700BF43
:1048A000044B00221A714FF47A7199601A73024A0C
:1048B0001A607047E495FF1F405A000070B50F4E14
:1048C0000F4D761BB61007D0043D0024013455F877
:1048D000043F9847A642F9D10A4E0B4D761B01F0D2
:1048E000BFF8B61008D0043D0024013455F8043F49
:1048F0009847A642F9D170BD70BD00BF6C5A000048
:104900006C5A0000885A00006C5A0000024B0146A5
:10491000186800F003B800BF388CFF1F2DE9F04F76
:1049200001F10B05162D83B0064627D935F0070592
:1049300027D4A94225D8304600F08CFAB5F5FC7F83
:1049400026D2C14F4FEAD50C07EBCC03DC689C4262
:1049500000F0D2816368E268A16823F00303234476
:1049600030465D68CA6045F0010591605D6000F009
:1049700073FA0834204603B0BDE8F08F1025A94231
:10498000D9D900240C232046336003B0BDE8F08F52
:104990005FEA552C00F08A80BCF1040F00F26081C0
:1049A0004FEA951C0CF1380C4FEA4C01A64F07EB6F
:1049B0008101CC68A14205D10CE0002B7ADAE468D1
:1049C000A14207D0626822F00302531B0F2BF4DDD3
:1049D0000CF1FF3C0CF1010C9B4B3C6903F1080E00
:1049E000744500F07E81616821F003014A1B0F2AA3
:1049F00000F36481002AC3F814E0C3F810E06ADA17
:104A0000B1F5007F80F03A81C90803EBC1004FEA9D
:104A1000A1085A688168A1604FF0010909FA08F8F5
:104A200048EA0202E0605A608460CC604FEAAC035E
:104A30000120984090425BD8024206D12CF0030C32
:104A4000400002420CF1040CFAD007EBCC084446BB
:104A5000E146E3689C4207D145E1002A80F2568195
:104A6000DB689C4200F03F81596821F003014A1B3A
:104A70000F2AF2DD1C46D3F80CC054F8088F5919E0
:104A800045F0010942F00105C3F804903046C8F82A
:104A90000CC0CCF8088079613961C1F80CE0C1F82C
:104AA00008E04D608A5000F0D7F963E77E214FF0AF
:104AB0003F0C7BE72244E3685068A16840F00105A1
:104AC000CB6030469960556000F0C6F90834204646
:104AD00003B0BDE8F08F214430464B6843F001033A
:104AE0004B6000F0B9F90834204603B0BDE8F08F00
:104AF000BC68636823F00309A94504D3C5EB090327
:104B00000F2B00F39180514B514A19681368013300
:104B100005EB010A04EB090B00F061810AF5805AEC
:104B20000AF10F0A2AF47F6A2AF00F0A304651462A
:104B3000019200F093F9B0F1FF3F8046019A00F036
:104B40000081834500F2FA80DFF810C1DCF8003004
:104B5000C3455344CCF8003000F04A8112683C4908
:104B600001321BBFCBEB080B5B44C1F80080CCF8D3
:104B7000003018F0070300F01381C3F10802C3F5F9
:104B8000805390440833C244CAF30B0ACAEB030AA9
:104B900051463046CDF804C000F060F9431CDDF802
:104BA00004C000F03581C8EB0002524442F001021B
:104BB000DCF80030C7F808805344BC42C8F8042031
:104BC000CCF80030DFF894A015D0B9F10F0F40F207
:104BD000EA806168A9F10C0222F0070201F0010EDF
:104BE000A118052042EA0E0E0F2AC4F804E048601E
:104BF000886000F21181174ABC6811688B4288BF37
:104C00001360154A11688B4288BF1360626822F0F6
:104C100003029542C5EB020301D80F2B04DC30469A
:104C200000F01AF90024A5E6621943F0010345F0EB
:104C3000010565603046BA60536000F00DF9083434
:104C4000204603B0BDE8F08F3C8CFF1FFC95FF1F92
:104C50004890FF1FF895FF1FF495FF1F0096FF1F58
:104C6000BCF1140F61D9BCF1540F00F28F804FEAF0
:104C7000153C0CF16E0C4FEA4C0197E64B0A042BE5
:104C800058D9142B00F2AE8003F15B02500007EB01
:104C90008000DFF8BC818368834200F08A805A6814
:104CA00022F00302914202D29B689842F7D1D96860
:104CB0007A68E160A3608C60DC60B7E6611942F05D
:104CC000010745F001056560304659611961C1F879
:104CD0000CE0C1F808E04F608A50083400F0BCF8DE
:104CE00048E65A68A2E609F1010919F0030F04F138
:104CF00008047FF4AEAE2DE004F108036469A3421A
:104D000008BF0CF1020C3FF467AE23E619441C46C1
:104D10004868DB6854F8082F40F001054D603046C4
:104D2000D3609A6000F098F824E60CF15B0C4FEA2F
:104D30004C013BE68A0938325000A8E7BC423FF4F8
:104D400003AFBC68626822F0030262E7D8F8008013
:104D500098457BD11CF0030FA8F108030CF1FF3C30
:104D6000F4D17B6823EA00037B60400098423FF661
:104D7000BFAE00283FF4BCAE0342CC467FF465AE24
:104D8000400003420CF1040CFAD05EE6BCF5AA7FA9
:104D90001AD84FEAD53C0CF1770C4FEA4C0105E6E6
:104DA0004FF48053EFE60123C8F804304446002254
:104DB0002FE791100120D8F8042000FA01F10A43EE
:104DC000C8F80420194674E740F254539C451BD898
:104DD0004FEA954C0CF17C0C4FEA4C01E6E50AF1E8
:104DE000100AA3E6542B1FD80A0B6E3250004EE770
:104DF000CBF30B0100297FF4B1AE0AEB0901BA68CD
:104E000041F001015160F6E6FC214FF07E0CCDE54A
:104E100001224FF0000ACBE604F10801304600F011
:104E2000D5F8DAF80030E6E6B3F5AA7F03D8CA0B66
:104E3000773250002BE740F25452934203D88A0C49
:104E40007C32500023E7FC207E2220E77B688CE741
:104E50003C8CFF1F704700BF704700BF38B5074C40
:104E60000023054608462360FEF7B2FA431C00D033
:104E700038BD2368002BFBD02B6038BD3896FF1F50
:104E800020F0030110F00300C0F1000051F8043BD2
:104E900000F1040C4FEACC0C6FF000021CBF22FAA8
:104EA0000CF213434FF0010C4CEA0C2C4CEA0C4C66
:104EB000A3EB0C0222EA030212EACC1204BF51F85F
:104EC000043B0430F4D013F0FF0F1FBF013013F484
:104ED0007F4F013013F47F0F18BF0130704700BFC0
:104EE000024B13B1024800F005B870470000000003
:104EF000014F0000014600200246034600F034B98D
:104F000038B5094D094C641BA41018BF05EB840586
:104F100005D0013C55F8043D9847002CF9D1BDE877
:104F2000384000F0B1BD00BF0000000000000000EC
:104F3000F8B5234D0F460446FFF78CFFAB685E685B
:104F400026F00306F11B01F6EF7121F47F6121F0D9
:104F50000F01A1F58057B7F5805F07DB20460021E0
:104F6000FFF77CFFAB683344984204D02046FFF73C
:104F700073FF0020F8BD20467942FFF76FFF013034
:104F80000DD0104BAA681968F61B46F001062046A2
:104F9000C91B56601960FFF75FFF0120F8BD20466E
:104FA0000021FFF75BFFAB68C21A0F2ADEDD064D5A
:104FB00004492D6842F00102401B5A600860D5E7A1
:104FC0003C8CFF1F0096FF1F4890FF1F2DE9F0410A
:104FD0000D460646002955D0FFF73CFF55F8041C46
:104FE000DFF874C121F00103A5F10804E218DCF830
:104FF00008005768904227F0030769D011F00101BB
:10500000576032D00021D0194068C00706D43B4415
:10501000906800294ED0D268C260906043F00102CF
:105020006260E350E1B9B3F5007F2DD35A0A042A38
:105030006AD89809383041000CEB810C4649DCF8FD
:105040000820624566D0516821F003018B4202D2EC
:1050500092689445F7D1D368E360A2609C60D46005
:105060003046BDE8F041FFF7F7BE55F8085C641B19
:105070000CF10808A06840452B4443D0E568C560A2
:10508000A860C0E7BDE8F081DB080CEBC302012596
:10509000DCF804009168A1609B1005FA03F3184343
:1050A000E260CCF8040094603046CC60BDE8F0418A
:1050B000FFF7D2BE294DA842ADD143F00102CCF892
:1050C0001440CCF81040E060A0606260E350C7E795
:1050D0001F44CB0707D455F8083CE41A1F44A268C4
:1050E000E368D3609A601E4B1B6847F001029F4241
:1050F0006260CCF80840B3D31A4B30461968FFF70A
:1051000017FFADE701217EE7142A0CD802F15B00FE
:10511000410091E74B688010012505FA00F0034338
:105120004B60134698E7542A03D8180B6E304100A1
:1051300082E7B2F5AA7F03D8D80B773041007BE72E
:1051400040F254518A4203D8980C7C30410073E7F6
:10515000FC217E2070E700BF3C8CFF1F448CFF1FAA
:105160004490FF1FFC95FF1FF0B5274C2668D6F82A
:10517000484185B00746002C41D065681F2D1EDDD3
:10518000224818B94FF0FF3005B0F0BD4FF4C87099
:10519000039102920193FFF7B9FB0399029A019BD5
:1051A00004460028EED0D6F8485125600020606003
:1051B0000546C6F84841C4F88801C4F88C013FB9D7
:1051C000AB1C00200135656044F8231005B0F0BD2C
:1051D00004EB85004FF0010CC0F88820D4F88861FA
:1051E0000CFA05F21643022FC4F88861C0F80831A2
:1051F000E6D1D4F88C311A43C4F88C21E0E706F5E7
:10520000A674C6F84841B8E75C5A00000D49000092
:1052100000000000003E5B4F5B3E3E6B4F6B3E1C50
:105220003E7C3E1C183C7E3C181C577D571C1C5E67
:105230007F5E1C00183C1800FFE7C3E7FF0018243E
:105240001800FFE7DBE7FF30483A060E26297929E8
:1052500026407F050507407F05253F5A3CE73C5A1D
:105260007F3E1C1C08081C1C3E7F14227F22145FFA
:105270005F005F5F06097F017F006689956A606055
:1052800060606094A2FFA29408047E040810207E4F
:10529000201008082A1C08081C2A08081E101010D4
:1052A000100C1E0C1E0C30383E3830060E3E0E061A
:1052B000000000000000005F00000007000700146D
:1052C0007F147F14242A7F2A12231308646236492C
:1052D0005620500008070300001C22410000412214
:1052E0001C002A1C7F1C2A08083E08080080703019
:1052F0000008080808080000606000201008040288
:105300003E5149453E00427F40007249494946218D
:1053100041494D331814127F1027454545393C4A01
:105320004949314121110907364949493646494918
:10533000291E000014000000403400000008142260
:1053400041141414141400412214080201590906CE
:105350003E415D594E7C1211127C7F494949363ECF
:10536000414141227F4141413E7F494949417F09B5
:105370000909013E414151737F0808087F00417FC0
:1053800041002040413F017F081422417F404040BE
:10539000407F021C027F7F0408107F3E4141413E56
:1053A0007F090909063E4151215E7F0919294626D8
:1053B0004949493203017F01033F4040403F1F20DC
:1053C00040201F3F4038403F6314081463030478B3
:1053D00004036159494D43007F41414102040810D3
:1053E00020004141417F040201020440404040400E
:1053F000000307080020545478407F28444438387C
:1054000044444428384444287F38545454180008ED
:105410007E090218A4A49C787F0804047800447DC7
:1054200040002040403D007F1028440000417F4064
:10543000007C047804787C080404783844444438B8
:10544000FC1824241818242418FC7C080404084898
:105450005454542404043F44243C4040207C1C20E9
:1054600040201C3C4030403C44281028444C909044
:10547000907C4464544C440008364100000077009E
:1054800000004136080002010204023C2623263CAB
:105490001EA1A161123A4040207A38545455592136
:1054A0005555794121545478412155547840205420
:1054B0005579400C1E52721239555555593954546C
:1054C000545939555454580000457C410002457DDB
:1054D000420001457C40F0292429F0F0282528F0DD
:1054E0007C545545002054547C547C0A097F493231
:1054F000494949323248484832324A4848303A41AC
:1055000041217A3A42402078009DA0A07D39444450
:1055100044393D4040403D3C24FF2424487E4943DB
:10552000662B2FFC2F2BFF0929F620C0887E09034C
:1055300020545479410000447D413048484A323873
:105540004040227A007A0A0A727D0D19317D26299F
:10555000292F28262929292630484D402038080897
:10556000080808080808382F10C8ACBA2F102834CB
:10557000FA00007B000008142A142222142A1408BE
:10558000AA005500AAAA55AA55AA000000FF0010BB
:105590001010FF00141414FF001010FF00FF101073
:1055A000F010F0141414FC001414F700FF0000FFB6
:1055B00000FF1414F404FC141417101F10101F1013
:1055C0001F1414141F00101010F0000000001F1012
:1055D0001010101F10101010F010000000FF10101D
:1055E00010101010101010FF10000000FF14000029
:1055F000FF00FF00001F10170000FC04F414141734
:1056000010171414F404F40000FF00F71414141419
:10561000141414F700F7141414171410101F101F8B
:10562000141414F4141010F010F000001F101F00D8
:1056300000001F14000000FC140000F010F0101017
:10564000FF10FF141414FF141010101F00000000AE
:10565000F010FFFFFFFFFFF0F0F0F0F0FFFFFF00A2
:1056600000000000FFFF0F0F0F0F0F3844443844B5
:105670007C2A2A3E147E02020606027E027E026315
:10568000554941633844443C04407E201E200602B4
:105690007E020299A5E7A5991C2A492A1C4C720191
:1056A000724C304A4D4D303048784830BC625A46D2
:1056B0003D3E494949007E0101017E2A2A2A2A2AC3
:1056C00044445F444440514A444040444A514000AD
:1056D00000FF0103E080FF000008086B6B08361232
:1056E000362436060F090F060000181800000010B7
:1056F00010003040FF0101001F01011E00191D179D
:1057000012003C3C3C3C00000000000004EF038021
:105710000204CF00C13005ED6403128104E8850066
:105720007806CB392C00340202F72003EA0000028D
:10573000C02302C11003C53E2802C78602364802B4
:105740003A5503B1001804B608822702F200022677
:105750000110E00F312B0C0E084EF1370710030E2D
:10576000090010E1000E1403110731C148080F0CA5
:1057700031360F00FFFFFFFF0000000000000000B7
:10578000CD1E0000013300004C696D697420526524
:105790006163686564000000462D0000462B000030
:1057A0004D454E55000000004F2D0000412D0000DA
:1057B000412B00004F2B0000534E415000000000D1
:1057C0005343414C4500FFFF4008FE4340A00440C6
:1057D0004408FE4344A004400018FE4300C00440B7
:1057E0003000FE43309004403400FE4334900440C7
:1057F0001C18FE431CC004401018FE4310C0044097
:105800000818FE4308C004400C18FE430CC00440B6
:105810000C10FE430CB004401010FE4310B00440C6
:105820001810FE4318B004401C10FE431CB0044086
:105830001410FE4314B004400418FE4304C0044096
:105840000010FE4300B004400008FE4300A00440E6
:105850000408FE4304A004400C08FE430CA00440CE
:105860000808FE4308A004401418FE4314C0044076
:105870001818FE4318C004400410FE4304B004404E
:105880000810FE4308B004401400FE431490044086
:105890004C08FE434CA004400420FE4304D00440C6
:1058A0002410FE4324B004402010FE4320B00440E6
:1058B0002810FE4328B004402C10FE432CB00440B6
:1058C0000020FE4300D004404808FE4348A00440A6
:1058D0001000FE431090044000151915000100004F
:1058E0006C87FF1F12000000000200009887FF1F56
:1058F0004300000000030000F487FF1F00000000C9
:10590000010309048087FF1F00000000020309044F
:10591000DC87FF1F0000000003030904F887FF1F56
:105920000000000000000000000000000000000077
:105930000000000000000000AD450000C54500006B
:105940007D4500008D45000085450000954500001F
:10595000114500002945000049450000514500005F
:105960005D4500006D4500009D450000A545000017
:10597000E1440000ED440000F9440000054500004A
:10598000D5450000B94500000000000000000000FF
:10599000D9460000F1460000A9460000B9460000C3
:1059A000B1460000C14600003D46000055460000DB
:1059B000754600007D4600008946000099460000BB
:1059C000C9460000D14600000D46000019460000FF
:1059D000254600003146000001470000E546000072
:1059E0000000000000000000054800001D48000005
:1059F000D5470000E5470000DD470000ED47000007
:105A00006947000081470000A1470000A947000046
:105A1000B5470000C5470000F5470000FD470000FE
:105A20003947000045470000514700005D4700002E
:105A30002D48000011480000000000000000000098
:105A40008548000091480000654800006D4800004E
:105A5000754800007D480000430000001088FF1FCB
:105A6000F8B500BFF8BC08BC9E467047E14E000088
:105A7000350400008D040000F14500001D470000C2
:085A800049480000A1480000A4
:045A8800F8B500BFAE
:105A8C000A040000FFFFFFFF3C96FF1F12010002FB
:105A9C0002000040C0168304000101020301000053
:105AAC0018035400650065006E00730079006400F3
:105ABC00750069006E006F0009024300020100C00E
:105ACC003209040000010202010005240010010546
